:020000023000CC
:10FC0000F89401E20EBF0FEF0DBFC6D0D2D129E0AC
:10FC100014B704BF112329F11EBBB5D0F89A10B553
:10FC20001C3AF9F42B9A2D9A00C01B991D9B10C009
:10FC30002B98239A00C01D990BC023982B9A00C0C3
:10FC40001B991D9B05C02D98259A00C01B9B09C0C0
:10FC5000277F07C0AED10093C100009381000C94B0
:10FC6000000001E000938100279AB8E08CE09FEF4C
:10FC700003E00EB98ED123FF69F3E1F302E00093B4
:10FC8000C0004092C4005092C50008E10093C1003A
:10FC900006E00093C20000E00EB994D00234E9F708
:10FCA00091D00C34D9F78ED00335C1F0003581F1F5
:10FCB0000835A1F787D0043589F722FF04C001E198
:10FCC000A6D00CEA65D002E40093C00068E774E7B0
:10FCD00096D00091C00006FFFCCFBCCF73D0043596
:10FCE000E9F622FF02C001E192D02260BAE063E7A8
:10FCF00074E785D0E2EDFFEF43E04BBF42E10791AF
:10FD000077D04A95E1F7C9CF65E672E778D0C5CFDD
:10FD100059D0073419F656D0202E54D0302E21FF5A
:10FD200005C00CEF13E02016310628F03FEF4AD053
:10FD30003A95E9F7E9CF3BBEF22DEE2730E84FEFD9
:10FD4000CC274CD0002E4AD0CC71F1F6102E01E019
:10FD50005ED032963A95A1F741D04423A9F622FD10
:10FD600003C024600FEF14D0B1E0E050F14003E095
:10FD70004ED005E04CD060E777E641D0022D38D078
:10FD8000032D36D08ACF1FE012BD1FEF11BD08959D
:10FD9000FADF00BDFA9AF99AF999FECF0895B09B5F
:10FDA0000895B09A019619F4213009F453CF8C01CB
:10FDB000007F1F70012B02950B2311F42F9A0895D9
:10FDC0002F9808950091C00007FD02C0E8DFFACF28
:10FDD0000091C000C02B0091C6000895F3DF4027BA
:10FDE00068E07FEC440F08F447276A95D9F7089537
:10FDF0001091C00015FFFCCF0093C600089502E6E5
:10FE0000F7DF0CE6F5DF062FF3DF072FF1CF07BF93
:10FE1000E89517B710FDFDCF0895689401C0E894E8
:10FE2000C0918400D0918500002411241001332753
:10FE300001C0B5DF00918400109185000C1B1D0BE3
:10FE4000C00FD11F000E111E231E331E7F3F29F04D
:10FE50000416150626063706D8F436F06099E9CF61
:10FE600000C06099E6CF05C0609BE3CF00C0609BF7
:10FE7000E0CF3E2F3F2B51F0009184001091850080
:10FE800001931193019211922192319298940895C5
:10FE9000189408954424552432014A015B01F2016B
:10FEA000A401B501BCDFA1F0400C511C621C731C05
:10FEB000441655066606770668F44419550966091E
:10FEC0007709ABDF39F0400C511C621C731CE8CF82
:10FED000989408951894089540E051E762E070E026
:10FEE0000895E0E0F2E09BDF79F0F6DFA4E095DF33
:10FEF00049F095DF39F0AA95D1F78FDF19F0FC971B
:10FF000004D011F444245524089540815181C681C0
:10FF1000D781C41BD50B3E01332700241124222492
:10FF2000A8E04081518166817781641B750BC617FB
:10FF3000D70708F4EB016615770508F43B018084C8
:10FF40009184A284B38486169706A306B306F8F4B8
:10FF5000060E171E231E3696AA9519F7C619D7093D
:10FF6000C634D307A0F4A0E20A0E131E231E000C11
:10FF7000111C221C000C111C221CA1E01A1A230ABD
:10FF80004114520410F4412C522C98940895189462
:10FF90000895A2DF7FDF61F0442455247FEFA1DFC5
:10FFA00029F040E054ED60E370E0F9CF042D05291D
:10FFB0000895002701B902B904B905B907B908B90C
:10FFC0000AB90BB90DB90EB900BB01BB03BB04BB29
:10FFD000089580FC03417465724C757844656661D0
:04FFE000756C742B9D
:00000001FF
